{
  "contractName": "Arrays",
  "abi": [
    {
      "inputs": [
        {
          "internalType": "uint256",
          "name": "",
          "type": "uint256"
        },
        {
          "internalType": "uint256",
          "name": "",
          "type": "uint256"
        }
      ],
      "name": "array2D",
      "outputs": [
        {
          "internalType": "uint256",
          "name": "",
          "type": "uint256"
        }
      ],
      "stateMutability": "view",
      "type": "function"
    },
    {
      "inputs": [
        {
          "internalType": "uint256",
          "name": "",
          "type": "uint256"
        }
      ],
      "name": "stringArray",
      "outputs": [
        {
          "internalType": "string",
          "name": "",
          "type": "string"
        }
      ],
      "stateMutability": "view",
      "type": "function"
    },
    {
      "inputs": [
        {
          "internalType": "uint256",
          "name": "",
          "type": "uint256"
        }
      ],
      "name": "uint256Array",
      "outputs": [
        {
          "internalType": "uint256",
          "name": "",
          "type": "uint256"
        }
      ],
      "stateMutability": "view",
      "type": "function"
    },
    {
      "inputs": [
        {
          "internalType": "uint256",
          "name": "",
          "type": "uint256"
        }
      ],
      "name": "values",
      "outputs": [
        {
          "internalType": "string",
          "name": "",
          "type": "string"
        }
      ],
      "stateMutability": "view",
      "type": "function"
    },
    {
      "inputs": [
        {
          "internalType": "string",
          "name": "_value",
          "type": "string"
        }
      ],
      "name": "addValue",
      "outputs": [],
      "stateMutability": "nonpayable",
      "type": "function"
    },
    {
      "inputs": [],
      "name": "valueCount",
      "outputs": [
        {
          "internalType": "uint256",
          "name": "",
          "type": "uint256"
        }
      ],
      "stateMutability": "view",
      "type": "function"
    }
  ],
  "bytecode": "0x60806040526040518060600160405280600160ff168152602001600260ff168152602001600360ff168152505f9060036200003c92919062000191565b5060405180606001604052806040518060400160405280600581526020017f6170706c6500000000000000000000000000000000000000000000000000000081525081526020016040518060400160405280600681526020017f62616e616e61000000000000000000000000000000000000000000000000000081525081526020016040518060400160405280600681526020017f636172726f740000000000000000000000000000000000000000000000000000815250815250600190600362000109929190620001e6565b5060405180604001604052806040518060600160405280600160ff168152602001600260ff168152602001600360ff1681525081526020016040518060600160405280600460ff168152602001600560ff168152602001600660ff1681525081525060039060026200017d92919062000244565b503480156200018a575f80fd5b50620006ba565b828054828255905f5260205f20908101928215620001d3579160200282015b82811115620001d2578251829060ff16905591602001919060010190620001b0565b5b509050620001e29190620002a4565b5090565b828054828255905f5260205f2090810192821562000231579160200282015b82811115620002305782518290816200021f9190620005d6565b509160200191906001019062000205565b5b509050620002409190620002c1565b5090565b828054828255905f5260205f2090810192821562000291579160200282015b8281111562000290578251829060036200027f92919062000191565b509160200191906001019062000263565b5b509050620002a09190620002e8565b5090565b5b80821115620002bd575f815f905550600101620002a5565b5090565b5b80821115620002e4575f8181620002da91906200030f565b50600101620002c2565b5090565b5b808211156200030b575f818162000301919062000352565b50600101620002e9565b5090565b5080546200031d90620003d6565b5f825580601f106200033057506200034f565b601f0160209004905f5260205f20908101906200034e9190620002a4565b5b50565b5080545f8255905f5260205f20908101906200036f9190620002a4565b50565b5f81519050919050565b7f4e487b71000000000000000000000000000000000000000000000000000000005f52604160045260245ffd5b7f4e487b71000000000000000000000000000000000000000000000000000000005f52602260045260245ffd5b5f6002820490506001821680620003ee57607f821691505b602082108103620004045762000403620003a9565b5b50919050565b5f819050815f5260205f209050919050565b5f6020601f8301049050919050565b5f82821b905092915050565b5f60088302620004687fffffffffffffffffffffffffffffffffffffffffffffffffffffffffffffffff826200042b565b6200047486836200042b565b95508019841693508086168417925050509392505050565b5f819050919050565b5f819050919050565b5f620004be620004b8620004b2846200048c565b62000495565b6200048c565b9050919050565b5f819050919050565b620004d9836200049e565b620004f1620004e882620004c5565b84845462000437565b825550505050565b5f90565b62000507620004f9565b62000514818484620004ce565b505050565b5b818110156200053b576200052f5f82620004fd565b6001810190506200051a565b5050565b601f8211156200058a5762000554816200040a565b6200055f846200041c565b810160208510156200056f578190505b620005876200057e856200041c565b83018262000519565b50505b505050565b5f82821c905092915050565b5f620005ac5f19846008026200058f565b1980831691505092915050565b5f620005c683836200059b565b9150826002028217905092915050565b620005e18262000372565b67ffffffffffffffff811115620005fd57620005fc6200037c565b5b620006098254620003d6565b620006168282856200053f565b5f60209050601f8311600181146200064c575f841562000637578287015190505b620006438582620005b9565b865550620006b2565b601f1984166200065c866200040a565b5f5b8281101562000685578489015182556001820191506020850194506020810190506200065e565b86831015620006a55784890151620006a1601f8916826200059b565b8355505b6001600288020188555050505b505050505050565b61093180620006c85f395ff3fe608060405234801561000f575f80fd5b5060043610610060575f3560e01c806326eb4dbb146100645780633a5fbaaa146100825780635e383d211461009e5780636422c4c8146100ce578063a73fb979146100fe578063d3268fc11461012e575b5f80fd5b61006c61015e565b6040516100799190610358565b60405180910390f35b61009c600480360381019061009791906104be565b61016a565b005b6100b860048036038101906100b3919061052f565b61019f565b6040516100c591906105d4565b60405180910390f35b6100e860048036038101906100e3919061052f565b610245565b6040516100f591906105d4565b60405180910390f35b6101186004803603810190610113919061052f565b6102eb565b6040516101259190610358565b60405180910390f35b610148600480360381019061014391906105f4565b61030a565b6040516101559190610358565b60405180910390f35b5f600280549050905090565b600281908060018154018082558091505060019003905f5260205f20015f90919091909150908161019b919061082c565b5050565b600281815481106101ae575f80fd5b905f5260205f20015f9150905080546101c69061065f565b80601f01602080910402602001604051908101604052809291908181526020018280546101f29061065f565b801561023d5780601f106102145761010080835404028352916020019161023d565b820191905f5260205f20905b81548152906001019060200180831161022057829003601f168201915b505050505081565b60018181548110610254575f80fd5b905f5260205f20015f91509050805461026c9061065f565b80601f01602080910402602001604051908101604052809291908181526020018280546102989061065f565b80156102e35780601f106102ba576101008083540402835291602001916102e3565b820191905f5260205f20905b8154815290600101906020018083116102c657829003601f168201915b505050505081565b5f81815481106102f9575f80fd5b905f5260205f20015f915090505481565b60038281548110610319575f80fd5b905f5260205f2001818154811061032e575f80fd5b905f5260205f20015f91509150505481565b5f819050919050565b61035281610340565b82525050565b5f60208201905061036b5f830184610349565b92915050565b5f604051905090565b5f80fd5b5f80fd5b5f80fd5b5f80fd5b5f601f19601f8301169050919050565b7f4e487b71000000000000000000000000000000000000000000000000000000005f52604160045260245ffd5b6103d08261038a565b810181811067ffffffffffffffff821117156103ef576103ee61039a565b5b80604052505050565b5f610401610371565b905061040d82826103c7565b919050565b5f67ffffffffffffffff82111561042c5761042b61039a565b5b6104358261038a565b9050602081019050919050565b828183375f83830152505050565b5f61046261045d84610412565b6103f8565b90508281526020810184848401111561047e5761047d610386565b5b610489848285610442565b509392505050565b5f82601f8301126104a5576104a4610382565b5b81356104b5848260208601610450565b91505092915050565b5f602082840312156104d3576104d261037a565b5b5f82013567ffffffffffffffff8111156104f0576104ef61037e565b5b6104fc84828501610491565b91505092915050565b61050e81610340565b8114610518575f80fd5b50565b5f8135905061052981610505565b92915050565b5f602082840312156105445761054361037a565b5b5f6105518482850161051b565b91505092915050565b5f81519050919050565b5f82825260208201905092915050565b5f5b83811015610591578082015181840152602081019050610576565b5f8484015250505050565b5f6105a68261055a565b6105b08185610564565b93506105c0818560208601610574565b6105c98161038a565b840191505092915050565b5f6020820190508181035f8301526105ec818461059c565b905092915050565b5f806040838503121561060a5761060961037a565b5b5f6106178582860161051b565b92505060206106288582860161051b565b9150509250929050565b7f4e487b71000000000000000000000000000000000000000000000000000000005f52602260045260245ffd5b5f600282049050600182168061067657607f821691505b60208210810361068957610688610632565b5b50919050565b5f819050815f5260205f209050919050565b5f6020601f8301049050919050565b5f82821b905092915050565b5f600883026106eb7fffffffffffffffffffffffffffffffffffffffffffffffffffffffffffffffff826106b0565b6106f586836106b0565b95508019841693508086168417925050509392505050565b5f819050919050565b5f61073061072b61072684610340565b61070d565b610340565b9050919050565b5f819050919050565b61074983610716565b61075d61075582610737565b8484546106bc565b825550505050565b5f90565b610771610765565b61077c818484610740565b505050565b5b8181101561079f576107945f82610769565b600181019050610782565b5050565b601f8211156107e4576107b58161068f565b6107be846106a1565b810160208510156107cd578190505b6107e16107d9856106a1565b830182610781565b50505b505050565b5f82821c905092915050565b5f6108045f19846008026107e9565b1980831691505092915050565b5f61081c83836107f5565b9150826002028217905092915050565b6108358261055a565b67ffffffffffffffff81111561084e5761084d61039a565b5b610858825461065f565b6108638282856107a3565b5f60209050601f831160018114610894575f8415610882578287015190505b61088c8582610811565b8655506108f3565b601f1984166108a28661068f565b5f5b828110156108c9578489015182556001820191506020850194506020810190506108a4565b868310156108e657848901516108e2601f8916826107f5565b8355505b6001600288020188555050505b50505050505056fea264697066735822122025304fd08acfaf3dec1aa13b4c45748c046117e678de0d574d04cdb3c7c66f9e64736f6c63430008150033",
  "immutableReferences": {},
  "source": "// SPDX-License-Identifier: MIT\r\npragma solidity ^0.8.0;\r\n\r\ncontract Arrays {\r\n    uint256[] public uint256Array = [1, 2, 3];\r\n    string[] public stringArray = [\"apple\", \"banana\", \"carrot\"];\r\n    string[] public values;\r\n    uint256[][] public array2D = [[1, 2, 3], [4, 5, 6]];\r\n\r\n    function addValue(string memory _value) public {\r\n        values.push(_value);\r\n    }\r\n\r\n    function valueCount() public view returns (uint256) {\r\n        return values.length;\r\n    }\r\n}\r\n",
  "sourcePath": "F:\\GitHub\\Blockchain\\contracts\\3_Arrays.sol",
  "compiler": {
    "name": "solc",
    "version": "0.8.21+commit.d9974bed.Emscripten.clang"
  },
  "schemaVersion": "3.4.16",
  "updatedAt": "2024-10-08T17:08:39.153Z",
  "devdoc": {
    "kind": "dev",
    "methods": {},
    "version": 1
  },
  "userdoc": {
    "kind": "user",
    "methods": {},
    "version": 1
  }
}