{
  "contractName": "HotelRoom",
  "abi": [
    {
      "inputs": [],
      "stateMutability": "nonpayable",
      "type": "constructor"
    },
    {
      "anonymous": false,
      "inputs": [
        {
          "indexed": false,
          "internalType": "address",
          "name": "_occupant",
          "type": "address"
        },
        {
          "indexed": false,
          "internalType": "uint256",
          "name": "_value",
          "type": "uint256"
        }
      ],
      "name": "Occupy",
      "type": "event"
    },
    {
      "inputs": [],
      "name": "currentStatus",
      "outputs": [
        {
          "internalType": "enum HotelRoom.Statuses",
          "name": "",
          "type": "uint8"
        }
      ],
      "stateMutability": "view",
      "type": "function"
    },
    {
      "inputs": [],
      "name": "owner",
      "outputs": [
        {
          "internalType": "address payable",
          "name": "",
          "type": "address"
        }
      ],
      "stateMutability": "view",
      "type": "function"
    },
    {
      "inputs": [],
      "name": "book",
      "outputs": [],
      "stateMutability": "payable",
      "type": "function"
    }
  ],
  "bytecode": "0x608060405234801561000f575f80fd5b50335f60016101000a81548173ffffffffffffffffffffffffffffffffffffffff021916908373ffffffffffffffffffffffffffffffffffffffff1602179055505f805f6101000a81548160ff021916908360018111156100735761007261007d565b5b02179055506100aa565b7f4e487b71000000000000000000000000000000000000000000000000000000005f52602160045260245ffd5b61051d806100b75f395ff3fe608060405260043610610033575f3560e01c806305a8da72146100375780638da5cb5b14610041578063ef8a92351461006b575b5f80fd5b61003f610095565b005b34801561004c575f80fd5b5061005561024e565b60405161006291906102c2565b60405180910390f35b348015610076575f80fd5b5061007f610273565b60405161008c919061034e565b60405180910390f35b5f60018111156100a8576100a76102db565b5b5f8054906101000a900460ff1660018111156100c7576100c66102db565b5b14610107576040517f08c379a00000000000000000000000000000000000000000000000000000000081526004016100fe906103c1565b60405180910390fd5b671bc16d674ec8000080341015610153576040517f08c379a000000000000000000000000000000000000000000000000000000000815260040161014a90610429565b60405180910390fd5b60015f806101000a81548160ff02191690836001811115610177576101766102db565b5b02179055505f805f60019054906101000a900473ffffffffffffffffffffffffffffffffffffffff1673ffffffffffffffffffffffffffffffffffffffff16346040516101c390610474565b5f6040518083038185875af1925050503d805f81146101fd576040519150601f19603f3d011682016040523d82523d5f602084013e610202565b606091505b509150915081610210575f80fd5b7fba951166d42eb077151bdecb7cf6027562f04f0143b0c141b1bb0a33eef5d69333346040516102419291906104c0565b60405180910390a1505050565b5f60019054906101000a900473ffffffffffffffffffffffffffffffffffffffff1681565b5f8054906101000a900460ff1681565b5f73ffffffffffffffffffffffffffffffffffffffff82169050919050565b5f6102ac82610283565b9050919050565b6102bc816102a2565b82525050565b5f6020820190506102d55f8301846102b3565b92915050565b7f4e487b71000000000000000000000000000000000000000000000000000000005f52602160045260245ffd5b60028110610319576103186102db565b5b50565b5f81905061032982610308565b919050565b5f6103388261031c565b9050919050565b6103488161032e565b82525050565b5f6020820190506103615f83018461033f565b92915050565b5f82825260208201905092915050565b7f43757272656e746c79206f636375706965642e000000000000000000000000005f82015250565b5f6103ab601383610367565b91506103b682610377565b602082019050919050565b5f6020820190508181035f8301526103d88161039f565b9050919050565b7f4e6f7420656e6f7567682045746865722070726f76696465642e0000000000005f82015250565b5f610413601a83610367565b915061041e826103df565b602082019050919050565b5f6020820190508181035f83015261044081610407565b9050919050565b5f81905092915050565b50565b5f61045f5f83610447565b915061046a82610451565b5f82019050919050565b5f61047e82610454565b9150819050919050565b5f61049282610283565b9050919050565b6104a281610488565b82525050565b5f819050919050565b6104ba816104a8565b82525050565b5f6040820190506104d35f830185610499565b6104e060208301846104b1565b939250505056fea264697066735822122089a9b6ad0c034f4bc11f96f885462378b9101d2efa733c72e4766ae4d37fab3e64736f6c63430008150033",
  "immutableReferences": {},
  "source": "// SPDX-License-Identifier: MIT\r\npragma solidity ^0.8.0;\r\n\r\n// Showcase payment transfers, enums, modifiers & events\r\n\r\ncontract HotelRoom {\r\n    enum Statuses {\r\n        Vacant,\r\n        Occupied\r\n    }\r\n    Statuses public currentStatus;\r\n\r\n    event Occupy(address _occupant, uint256 _value);\r\n\r\n    address payable public owner;\r\n\r\n    constructor() {\r\n        owner = payable(msg.sender);\r\n        currentStatus = Statuses.Vacant;\r\n    }\r\n\r\n    modifier onlyWhileVacant() {\r\n        require(currentStatus == Statuses.Vacant, \"Currently occupied.\");\r\n        _;\r\n    }\r\n\r\n    modifier costs(uint256 _amount) {\r\n        require(msg.value >= _amount, \"Not enough Ether provided.\");\r\n        _;\r\n    }\r\n\r\n    function book() public payable onlyWhileVacant costs(2 ether) {\r\n        currentStatus = Statuses.Occupied;\r\n\r\n        (bool sent, bytes memory data) = owner.call{value: msg.value}(\"\");\r\n        require(sent);\r\n\r\n        emit Occupy(msg.sender, msg.value);\r\n    }\r\n}\r\n",
  "sourcePath": "F:\\GitHub\\Blockchain\\contracts\\6_HotelRoom.sol",
  "compiler": {
    "name": "solc",
    "version": "0.8.21+commit.d9974bed.Emscripten.clang"
  },
  "schemaVersion": "3.4.16",
  "updatedAt": "2024-10-08T16:52:14.826Z",
  "devdoc": {
    "kind": "dev",
    "methods": {},
    "version": 1
  },
  "userdoc": {
    "kind": "user",
    "methods": {},
    "version": 1
  }
}