{
  "contractName": "Mappings",
  "abi": [
    {
      "inputs": [],
      "stateMutability": "nonpayable",
      "type": "constructor"
    },
    {
      "inputs": [
        {
          "internalType": "uint256",
          "name": "",
          "type": "uint256"
        }
      ],
      "name": "books",
      "outputs": [
        {
          "internalType": "string",
          "name": "title",
          "type": "string"
        },
        {
          "internalType": "string",
          "name": "author",
          "type": "string"
        }
      ],
      "stateMutability": "view",
      "type": "function"
    },
    {
      "inputs": [
        {
          "internalType": "address",
          "name": "",
          "type": "address"
        },
        {
          "internalType": "uint256",
          "name": "",
          "type": "uint256"
        }
      ],
      "name": "myBooks",
      "outputs": [
        {
          "internalType": "string",
          "name": "title",
          "type": "string"
        },
        {
          "internalType": "string",
          "name": "author",
          "type": "string"
        }
      ],
      "stateMutability": "view",
      "type": "function"
    },
    {
      "inputs": [
        {
          "internalType": "uint256",
          "name": "",
          "type": "uint256"
        }
      ],
      "name": "names",
      "outputs": [
        {
          "internalType": "string",
          "name": "",
          "type": "string"
        }
      ],
      "stateMutability": "view",
      "type": "function"
    },
    {
      "inputs": [
        {
          "internalType": "uint256",
          "name": "_id",
          "type": "uint256"
        },
        {
          "internalType": "string",
          "name": "_title",
          "type": "string"
        },
        {
          "internalType": "string",
          "name": "_author",
          "type": "string"
        }
      ],
      "name": "addBook",
      "outputs": [],
      "stateMutability": "nonpayable",
      "type": "function"
    },
    {
      "inputs": [
        {
          "internalType": "uint256",
          "name": "_id",
          "type": "uint256"
        },
        {
          "internalType": "string",
          "name": "_title",
          "type": "string"
        },
        {
          "internalType": "string",
          "name": "_author",
          "type": "string"
        }
      ],
      "name": "addMyBook",
      "outputs": [],
      "stateMutability": "nonpayable",
      "type": "function"
    }
  ],
  "bytecode": "0x608060405234801562000010575f80fd5b506040518060400160405280600481526020017f4164616d000000000000000000000000000000000000000000000000000000008152505f80600181526020019081526020015f2090816200006691906200037d565b506040518060400160405280600581526020017f42727563650000000000000000000000000000000000000000000000000000008152505f80600281526020019081526020015f209081620000bc91906200037d565b506040518060400160405280600481526020017f4361726c000000000000000000000000000000000000000000000000000000008152505f80600381526020019081526020015f2090816200011291906200037d565b5062000461565b5f81519050919050565b7f4e487b71000000000000000000000000000000000000000000000000000000005f52604160045260245ffd5b7f4e487b71000000000000000000000000000000000000000000000000000000005f52602260045260245ffd5b5f60028204905060018216806200019557607f821691505b602082108103620001ab57620001aa62000150565b5b50919050565b5f819050815f5260205f209050919050565b5f6020601f8301049050919050565b5f82821b905092915050565b5f600883026200020f7fffffffffffffffffffffffffffffffffffffffffffffffffffffffffffffffff82620001d2565b6200021b8683620001d2565b95508019841693508086168417925050509392505050565b5f819050919050565b5f819050919050565b5f620002656200025f620002598462000233565b6200023c565b62000233565b9050919050565b5f819050919050565b620002808362000245565b620002986200028f826200026c565b848454620001de565b825550505050565b5f90565b620002ae620002a0565b620002bb81848462000275565b505050565b5b81811015620002e257620002d65f82620002a4565b600181019050620002c1565b5050565b601f8211156200033157620002fb81620001b1565b6200030684620001c3565b8101602085101562000316578190505b6200032e6200032585620001c3565b830182620002c0565b50505b505050565b5f82821c905092915050565b5f620003535f198460080262000336565b1980831691505092915050565b5f6200036d838362000342565b9150826002028217905092915050565b620003888262000119565b67ffffffffffffffff811115620003a457620003a362000123565b5b620003b082546200017d565b620003bd828285620002e6565b5f60209050601f831160018114620003f3575f8415620003de578287015190505b620003ea858262000360565b86555062000459565b601f1984166200040386620001b1565b5f5b828110156200042c5784890151825560018201915060208501945060208101905062000405565b868310156200044c578489015162000448601f89168262000342565b8355505b6001600288020188555050505b505050505050565b610ba4806200046f5f395ff3fe608060405234801561000f575f80fd5b5060043610610055575f3560e01c8063028414f21461005957806327d3553f146100755780634622ab03146100a6578063493ec707146100d657806368744046146100f2575b5f80fd5b610073600480360381019061006e919061068b565b610123565b005b61008f600480360381019061008a919061076d565b61017b565b60405161009d929190610825565b60405180910390f35b6100c060048036038101906100bb919061085a565b6102b2565b6040516100cd9190610885565b60405180910390f35b6100f060048036038101906100eb919061068b565b61034c565b005b61010c6004803603810190610107919061085a565b6103df565b60405161011a929190610825565b60405180910390f35b60405180604001604052808381526020018281525060015f8581526020019081526020015f205f820151815f01908161015c9190610a9f565b5060208201518160010190816101729190610a9f565b50905050505050565b6002602052815f5260405f20602052805f5260405f205f9150915050805f0180546101a5906108d2565b80601f01602080910402602001604051908101604052809291908181526020018280546101d1906108d2565b801561021c5780601f106101f35761010080835404028352916020019161021c565b820191905f5260205f20905b8154815290600101906020018083116101ff57829003601f168201915b505050505090806001018054610231906108d2565b80601f016020809104026020016040519081016040528092919081815260200182805461025d906108d2565b80156102a85780601f1061027f576101008083540402835291602001916102a8565b820191905f5260205f20905b81548152906001019060200180831161028b57829003601f168201915b5050505050905082565b5f602052805f5260405f205f9150905080546102cd906108d2565b80601f01602080910402602001604051908101604052809291908181526020018280546102f9906108d2565b80156103445780601f1061031b57610100808354040283529160200191610344565b820191905f5260205f20905b81548152906001019060200180831161032757829003601f168201915b505050505081565b60405180604001604052808381526020018281525060025f3373ffffffffffffffffffffffffffffffffffffffff1673ffffffffffffffffffffffffffffffffffffffff1681526020019081526020015f205f8581526020019081526020015f205f820151815f0190816103c09190610a9f565b5060208201518160010190816103d69190610a9f565b50905050505050565b6001602052805f5260405f205f91509050805f0180546103fe906108d2565b80601f016020809104026020016040519081016040528092919081815260200182805461042a906108d2565b80156104755780601f1061044c57610100808354040283529160200191610475565b820191905f5260205f20905b81548152906001019060200180831161045857829003601f168201915b50505050509080600101805461048a906108d2565b80601f01602080910402602001604051908101604052809291908181526020018280546104b6906108d2565b80156105015780601f106104d857610100808354040283529160200191610501565b820191905f5260205f20905b8154815290600101906020018083116104e457829003601f168201915b5050505050905082565b5f604051905090565b5f80fd5b5f80fd5b5f819050919050565b61052e8161051c565b8114610538575f80fd5b50565b5f8135905061054981610525565b92915050565b5f80fd5b5f80fd5b5f601f19601f8301169050919050565b7f4e487b71000000000000000000000000000000000000000000000000000000005f52604160045260245ffd5b61059d82610557565b810181811067ffffffffffffffff821117156105bc576105bb610567565b5b80604052505050565b5f6105ce61050b565b90506105da8282610594565b919050565b5f67ffffffffffffffff8211156105f9576105f8610567565b5b61060282610557565b9050602081019050919050565b828183375f83830152505050565b5f61062f61062a846105df565b6105c5565b90508281526020810184848401111561064b5761064a610553565b5b61065684828561060f565b509392505050565b5f82601f8301126106725761067161054f565b5b813561068284826020860161061d565b91505092915050565b5f805f606084860312156106a2576106a1610514565b5b5f6106af8682870161053b565b935050602084013567ffffffffffffffff8111156106d0576106cf610518565b5b6106dc8682870161065e565b925050604084013567ffffffffffffffff8111156106fd576106fc610518565b5b6107098682870161065e565b9150509250925092565b5f73ffffffffffffffffffffffffffffffffffffffff82169050919050565b5f61073c82610713565b9050919050565b61074c81610732565b8114610756575f80fd5b50565b5f8135905061076781610743565b92915050565b5f806040838503121561078357610782610514565b5b5f61079085828601610759565b92505060206107a18582860161053b565b9150509250929050565b5f81519050919050565b5f82825260208201905092915050565b5f5b838110156107e25780820151818401526020810190506107c7565b5f8484015250505050565b5f6107f7826107ab565b61080181856107b5565b93506108118185602086016107c5565b61081a81610557565b840191505092915050565b5f6040820190508181035f83015261083d81856107ed565b9050818103602083015261085181846107ed565b90509392505050565b5f6020828403121561086f5761086e610514565b5b5f61087c8482850161053b565b91505092915050565b5f6020820190508181035f83015261089d81846107ed565b905092915050565b7f4e487b71000000000000000000000000000000000000000000000000000000005f52602260045260245ffd5b5f60028204905060018216806108e957607f821691505b6020821081036108fc576108fb6108a5565b5b50919050565b5f819050815f5260205f209050919050565b5f6020601f8301049050919050565b5f82821b905092915050565b5f6008830261095e7fffffffffffffffffffffffffffffffffffffffffffffffffffffffffffffffff82610923565b6109688683610923565b95508019841693508086168417925050509392505050565b5f819050919050565b5f6109a361099e6109998461051c565b610980565b61051c565b9050919050565b5f819050919050565b6109bc83610989565b6109d06109c8826109aa565b84845461092f565b825550505050565b5f90565b6109e46109d8565b6109ef8184846109b3565b505050565b5b81811015610a1257610a075f826109dc565b6001810190506109f5565b5050565b601f821115610a5757610a2881610902565b610a3184610914565b81016020851015610a40578190505b610a54610a4c85610914565b8301826109f4565b50505b505050565b5f82821c905092915050565b5f610a775f1984600802610a5c565b1980831691505092915050565b5f610a8f8383610a68565b9150826002028217905092915050565b610aa8826107ab565b67ffffffffffffffff811115610ac157610ac0610567565b5b610acb82546108d2565b610ad6828285610a16565b5f60209050601f831160018114610b07575f8415610af5578287015190505b610aff8582610a84565b865550610b66565b601f198416610b1586610902565b5f5b82811015610b3c57848901518255600182019150602085019450602081019050610b17565b86831015610b595784890151610b55601f891682610a68565b8355505b6001600288020188555050505b50505050505056fea2646970667358221220725e5f2a5604a2546e8cca8f76e554a7d58e6f99bda0cd8aff8eab4de41a49f464736f6c63430008150033",
  "immutableReferences": {},
  "source": "// SPDX-License-Identifier: MIT\r\npragma solidity ^0.8.0;\r\n\r\ncontract Mappings {\r\n    mapping(uint256 => string) public names;\r\n    mapping(uint256 => Book) public books;\r\n    mapping(address => mapping(uint256 => Book)) public myBooks;\r\n\r\n    struct Book {\r\n        string title;\r\n        string author;\r\n    }\r\n\r\n    constructor() {\r\n        names[1] = \"Adam\";\r\n        names[2] = \"Bruce\";\r\n        names[3] = \"Carl\";\r\n    }\r\n\r\n    function addBook(\r\n        uint256 _id,\r\n        string memory _title,\r\n        string memory _author\r\n    ) public {\r\n        books[_id] = Book(_title, _author);\r\n    }\r\n\r\n    function addMyBook(\r\n        uint256 _id,\r\n        string memory _title,\r\n        string memory _author\r\n    ) public {\r\n        myBooks[msg.sender][_id] = Book(_title, _author);\r\n    }\r\n}\r\n",
  "sourcePath": "F:\\GitHub\\Blockchain\\contracts\\4_Mappings.sol",
  "compiler": {
    "name": "solc",
    "version": "0.8.21+commit.d9974bed.Emscripten.clang"
  },
  "schemaVersion": "3.4.16",
  "updatedAt": "2024-10-08T17:08:39.165Z",
  "devdoc": {
    "kind": "dev",
    "methods": {},
    "version": 1
  },
  "userdoc": {
    "kind": "user",
    "methods": {},
    "version": 1
  }
}