{
  "contractName": "Secret",
  "abi": [
    {
      "inputs": [
        {
          "internalType": "string",
          "name": "_secret",
          "type": "string"
        }
      ],
      "stateMutability": "nonpayable",
      "type": "constructor"
    },
    {
      "inputs": [],
      "name": "getSecret",
      "outputs": [
        {
          "internalType": "string",
          "name": "",
          "type": "string"
        }
      ],
      "stateMutability": "view",
      "type": "function"
    }
  ],
  "bytecode": "0x608060405234801562000010575f80fd5b5060405162000e8438038062000e84833981810160405281019062000036919062000289565b335f806101000a81548173ffffffffffffffffffffffffffffffffffffffff021916908373ffffffffffffffffffffffffffffffffffffffff1602179055505f816040516200008590620000f6565b62000091919062000332565b604051809103905ff080158015620000ab573d5f803e3d5ffd5b5090508060015f6101000a81548173ffffffffffffffffffffffffffffffffffffffff021916908373ffffffffffffffffffffffffffffffffffffffff160217905550505062000354565b6106f4806200079083390190565b5f604051905090565b5f80fd5b5f80fd5b5f80fd5b5f80fd5b5f601f19601f8301169050919050565b7f4e487b71000000000000000000000000000000000000000000000000000000005f52604160045260245ffd5b62000165826200011d565b810181811067ffffffffffffffff821117156200018757620001866200012d565b5b80604052505050565b5f6200019b62000104565b9050620001a982826200015a565b919050565b5f67ffffffffffffffff821115620001cb57620001ca6200012d565b5b620001d6826200011d565b9050602081019050919050565b5f5b8381101562000202578082015181840152602081019050620001e5565b5f8484015250505050565b5f620002236200021d84620001ae565b62000190565b90508281526020810184848401111562000242576200024162000119565b5b6200024f848285620001e3565b509392505050565b5f82601f8301126200026e576200026d62000115565b5b8151620002808482602086016200020d565b91505092915050565b5f60208284031215620002a157620002a06200010d565b5b5f82015167ffffffffffffffff811115620002c157620002c062000111565b5b620002cf8482850162000257565b91505092915050565b5f81519050919050565b5f82825260208201905092915050565b5f620002fe82620002d8565b6200030a8185620002e2565b93506200031c818560208601620001e3565b62000327816200011d565b840191505092915050565b5f6020820190508181035f8301526200034c8184620002f2565b905092915050565b61042e80620003625f395ff3fe608060405234801561000f575f80fd5b5060043610610029575f3560e01c80635b9fdc301461002d575b5f80fd5b61003561004b565b60405161004291906101fa565b60405180910390f35b60605f8054906101000a900473ffffffffffffffffffffffffffffffffffffffff1673ffffffffffffffffffffffffffffffffffffffff163373ffffffffffffffffffffffffffffffffffffffff16146100da576040517f08c379a00000000000000000000000000000000000000000000000000000000081526004016100d190610264565b60405180910390fd5b60015f9054906101000a900473ffffffffffffffffffffffffffffffffffffffff1673ffffffffffffffffffffffffffffffffffffffff16635b9fdc306040518163ffffffff1660e01b81526004015f60405180830381865afa158015610143573d5f803e3d5ffd5b505050506040513d5f823e3d601f19601f8201168201806040525081019061016b91906103b1565b905090565b5f81519050919050565b5f82825260208201905092915050565b5f5b838110156101a757808201518184015260208101905061018c565b5f8484015250505050565b5f601f19601f8301169050919050565b5f6101cc82610170565b6101d6818561017a565b93506101e681856020860161018a565b6101ef816101b2565b840191505092915050565b5f6020820190508181035f83015261021281846101c2565b905092915050565b7f6d757374206265206f776e6572000000000000000000000000000000000000005f82015250565b5f61024e600d8361017a565b91506102598261021a565b602082019050919050565b5f6020820190508181035f83015261027b81610242565b9050919050565b5f604051905090565b5f80fd5b5f80fd5b5f80fd5b5f80fd5b7f4e487b71000000000000000000000000000000000000000000000000000000005f52604160045260245ffd5b6102d1826101b2565b810181811067ffffffffffffffff821117156102f0576102ef61029b565b5b80604052505050565b5f610302610282565b905061030e82826102c8565b919050565b5f67ffffffffffffffff82111561032d5761032c61029b565b5b610336826101b2565b9050602081019050919050565b5f61035561035084610313565b6102f9565b90508281526020810184848401111561037157610370610297565b5b61037c84828561018a565b509392505050565b5f82601f83011261039857610397610293565b5b81516103a8848260208601610343565b91505092915050565b5f602082840312156103c6576103c561028b565b5b5f82015167ffffffffffffffff8111156103e3576103e261028f565b5b6103ef84828501610384565b9150509291505056fea2646970667358221220ff656ba87205d1cd62c1d3f744aad156ff17a82cfb7e185b52e7f1d945b552e864736f6c63430008150033608060405234801561000f575f80fd5b506040516106f43803806106f4833981810160405281019061003191906101ad565b805f908161003f9190610401565b50506104d0565b5f604051905090565b5f80fd5b5f80fd5b5f80fd5b5f80fd5b5f601f19601f8301169050919050565b7f4e487b71000000000000000000000000000000000000000000000000000000005f52604160045260245ffd5b6100a58261005f565b810181811067ffffffffffffffff821117156100c4576100c361006f565b5b80604052505050565b5f6100d6610046565b90506100e2828261009c565b919050565b5f67ffffffffffffffff8211156101015761010061006f565b5b61010a8261005f565b9050602081019050919050565b5f5b83811015610134578082015181840152602081019050610119565b5f8484015250505050565b5f61015161014c846100e7565b6100cd565b90508281526020810184848401111561016d5761016c61005b565b5b610178848285610117565b509392505050565b5f82601f83011261019457610193610057565b5b81516101a484826020860161013f565b91505092915050565b5f602082840312156101c2576101c161004f565b5b5f82015167ffffffffffffffff8111156101df576101de610053565b5b6101eb84828501610180565b91505092915050565b5f81519050919050565b7f4e487b71000000000000000000000000000000000000000000000000000000005f52602260045260245ffd5b5f600282049050600182168061024257607f821691505b602082108103610255576102546101fe565b5b50919050565b5f819050815f5260205f209050919050565b5f6020601f8301049050919050565b5f82821b905092915050565b5f600883026102b77fffffffffffffffffffffffffffffffffffffffffffffffffffffffffffffffff8261027c565b6102c1868361027c565b95508019841693508086168417925050509392505050565b5f819050919050565b5f819050919050565b5f6103056103006102fb846102d9565b6102e2565b6102d9565b9050919050565b5f819050919050565b61031e836102eb565b61033261032a8261030c565b848454610288565b825550505050565b5f90565b61034661033a565b610351818484610315565b505050565b5b81811015610374576103695f8261033e565b600181019050610357565b5050565b601f8211156103b95761038a8161025b565b6103938461026d565b810160208510156103a2578190505b6103b66103ae8561026d565b830182610356565b50505b505050565b5f82821c905092915050565b5f6103d95f19846008026103be565b1980831691505092915050565b5f6103f183836103ca565b9150826002028217905092915050565b61040a826101f4565b67ffffffffffffffff8111156104235761042261006f565b5b61042d825461022b565b610438828285610378565b5f60209050601f831160018114610469575f8415610457578287015190505b61046185826103e6565b8655506104c8565b601f1984166104778661025b565b5f5b8281101561049e57848901518255600182019150602085019450602081019050610479565b868310156104bb57848901516104b7601f8916826103ca565b8355505b6001600288020188555050505b505050505050565b610217806104dd5f395ff3fe608060405234801561000f575f80fd5b5060043610610029575f3560e01c80635b9fdc301461002d575b5f80fd5b61003561004b565b6040516100429190610164565b60405180910390f35b60605f8054610059906101b1565b80601f0160208091040260200160405190810160405280929190818152602001828054610085906101b1565b80156100d05780601f106100a7576101008083540402835291602001916100d0565b820191905f5260205f20905b8154815290600101906020018083116100b357829003601f168201915b5050505050905090565b5f81519050919050565b5f82825260208201905092915050565b5f5b838110156101115780820151818401526020810190506100f6565b5f8484015250505050565b5f601f19601f8301169050919050565b5f610136826100da565b61014081856100e4565b93506101508185602086016100f4565b6101598161011c565b840191505092915050565b5f6020820190508181035f83015261017c818461012c565b905092915050565b7f4e487b71000000000000000000000000000000000000000000000000000000005f52602260045260245ffd5b5f60028204905060018216806101c857607f821691505b6020821081036101db576101da610184565b5b5091905056fea2646970667358221220de9b53842cc79d4ab4ce0b099d1084790d9bd00736021bdbeeecd5718f94df3d64736f6c63430008150033",
  "immutableReferences": {},
  "source": "// SPDX-License-Identifier: MIT\r\npragma solidity ^0.8.0;\r\n\r\n// Showcase contract inheritance\r\n\r\ncontract Ownable {\r\n    address owner;\r\n\r\n    constructor() {\r\n        owner = msg.sender;\r\n    }\r\n\r\n    modifier onlyOwner() {\r\n        require(msg.sender == owner, \"must be owner\");\r\n        _;\r\n    }\r\n}\r\n\r\ncontract SecretVault {\r\n    string secret;\r\n\r\n    constructor(string memory _secret) {\r\n        secret = _secret;\r\n    }\r\n\r\n    function getSecret() public view returns (string memory) {\r\n        return secret;\r\n    }\r\n}\r\n\r\ncontract Secret is Ownable {\r\n    address secretVault;\r\n\r\n    constructor(string memory _secret) {\r\n        SecretVault _secretVault = new SecretVault(_secret);\r\n        secretVault = address(_secretVault);\r\n        super;\r\n    }\r\n\r\n    function getSecret() public view onlyOwner returns (string memory) {\r\n        return SecretVault(secretVault).getSecret();\r\n    }\r\n}\r\n",
  "sourcePath": "F:\\GitHub\\Blockchain\\contracts\\7_Secret.sol",
  "compiler": {
    "name": "solc",
    "version": "0.8.21+commit.d9974bed.Emscripten.clang"
  },
  "schemaVersion": "3.4.16",
  "updatedAt": "2024-10-08T17:08:39.183Z",
  "devdoc": {
    "kind": "dev",
    "methods": {},
    "version": 1
  },
  "userdoc": {
    "kind": "user",
    "methods": {},
    "version": 1
  }
}