{
  "contractName": "Variables",
  "abi": [
    {
      "inputs": [],
      "name": "myAddress",
      "outputs": [
        {
          "internalType": "address",
          "name": "",
          "type": "address"
        }
      ],
      "stateMutability": "view",
      "type": "function"
    },
    {
      "inputs": [],
      "name": "myBytes32",
      "outputs": [
        {
          "internalType": "bytes32",
          "name": "",
          "type": "bytes32"
        }
      ],
      "stateMutability": "view",
      "type": "function"
    },
    {
      "inputs": [],
      "name": "myInt",
      "outputs": [
        {
          "internalType": "int256",
          "name": "",
          "type": "int256"
        }
      ],
      "stateMutability": "view",
      "type": "function"
    },
    {
      "inputs": [],
      "name": "myString",
      "outputs": [
        {
          "internalType": "string",
          "name": "",
          "type": "string"
        }
      ],
      "stateMutability": "view",
      "type": "function"
    },
    {
      "inputs": [],
      "name": "myStruct",
      "outputs": [
        {
          "internalType": "uint256",
          "name": "myUint256",
          "type": "uint256"
        },
        {
          "internalType": "string",
          "name": "myString",
          "type": "string"
        }
      ],
      "stateMutability": "view",
      "type": "function"
    },
    {
      "inputs": [],
      "name": "myUint256",
      "outputs": [
        {
          "internalType": "uint256",
          "name": "",
          "type": "uint256"
        }
      ],
      "stateMutability": "view",
      "type": "function"
    },
    {
      "inputs": [],
      "name": "myUint8",
      "outputs": [
        {
          "internalType": "uint8",
          "name": "",
          "type": "uint8"
        }
      ],
      "stateMutability": "view",
      "type": "function"
    },
    {
      "inputs": [],
      "name": "getValue",
      "outputs": [
        {
          "internalType": "uint256",
          "name": "",
          "type": "uint256"
        }
      ],
      "stateMutability": "pure",
      "type": "function"
    }
  ],
  "bytecode": "0x608060405260015f5560018055600160025f6101000a81548160ff021916908360ff1602179055506040518060400160405280600d81526020017f48656c6c6f2c20576f726c642100000000000000000000000000000000000000815250600390816200006d9190620003cc565b507f48656c6c6f2c20576f726c64210000000000000000000000000000000000000060045573c02aaa39b223fe8d0a0e5c4f27ead9083c756cc260055f6101000a81548173ffffffffffffffffffffffffffffffffffffffff021916908373ffffffffffffffffffffffffffffffffffffffff1602179055506040518060400160405280600181526020016040518060400160405280600d81526020017f48656c6c6f2c20576f726c64210000000000000000000000000000000000000081525081525060065f820151815f01556020820151816001019081620001529190620003cc565b50505034801562000161575f80fd5b50620004b0565b5f81519050919050565b7f4e487b71000000000000000000000000000000000000000000000000000000005f52604160045260245ffd5b7f4e487b71000000000000000000000000000000000000000000000000000000005f52602260045260245ffd5b5f6002820490506001821680620001e457607f821691505b602082108103620001fa57620001f96200019f565b5b50919050565b5f819050815f5260205f209050919050565b5f6020601f8301049050919050565b5f82821b905092915050565b5f600883026200025e7fffffffffffffffffffffffffffffffffffffffffffffffffffffffffffffffff8262000221565b6200026a868362000221565b95508019841693508086168417925050509392505050565b5f819050919050565b5f819050919050565b5f620002b4620002ae620002a88462000282565b6200028b565b62000282565b9050919050565b5f819050919050565b620002cf8362000294565b620002e7620002de82620002bb565b8484546200022d565b825550505050565b5f90565b620002fd620002ef565b6200030a818484620002c4565b505050565b5b818110156200033157620003255f82620002f3565b60018101905062000310565b5050565b601f82111562000380576200034a8162000200565b620003558462000212565b8101602085101562000365578190505b6200037d620003748562000212565b8301826200030f565b50505b505050565b5f82821c905092915050565b5f620003a25f198460080262000385565b1980831691505092915050565b5f620003bc838362000391565b9150826002028217905092915050565b620003d78262000168565b67ffffffffffffffff811115620003f357620003f262000172565b5b620003ff8254620001cc565b6200040c82828562000335565b5f60209050601f83116001811462000442575f84156200042d578287015190505b620004398582620003af565b865550620004a8565b601f198416620004528662000200565b5f5b828110156200047b5784890151825560018201915060208501945060208101905062000454565b868310156200049b578489015162000497601f89168262000391565b8355505b6001600288020188555050505b505050505050565b61057d80620004be5f395ff3fe608060405234801561000f575f80fd5b5060043610610086575f3560e01c80634b3e7e0c116100595780634b3e7e0c146101025780638bc9fe6c14610120578063a7dbce1c1461013f578063e2a4b2af1461015d57610086565b8063209652551461008a57806326b85ee1146100a85780632cb777a6146100c6578063492bfa18146100e4575b5f80fd5b61009261017b565b60405161009f919061030b565b60405180910390f35b6100b0610188565b6040516100bd9190610363565b60405180910390f35b6100ce6101ad565b6040516100db9190610394565b60405180910390f35b6100ec6101b2565b6040516100f99190610437565b60405180910390f35b61010a61023e565b604051610117919061046f565b60405180910390f35b610128610244565b604051610136929190610488565b60405180910390f35b6101476102db565b604051610154919061030b565b60405180910390f35b6101656102e1565b60405161017291906104d1565b60405180910390f35b5f80600190508091505090565b60055f9054906101000a900473ffffffffffffffffffffffffffffffffffffffff1681565b5f5481565b600380546101bf90610517565b80601f01602080910402602001604051908101604052809291908181526020018280546101eb90610517565b80156102365780601f1061020d57610100808354040283529160200191610236565b820191905f5260205f20905b81548152906001019060200180831161021957829003601f168201915b505050505081565b60045481565b6006805f01549080600101805461025a90610517565b80601f016020809104026020016040519081016040528092919081815260200182805461028690610517565b80156102d15780601f106102a8576101008083540402835291602001916102d1565b820191905f5260205f20905b8154815290600101906020018083116102b457829003601f168201915b5050505050905082565b60015481565b60025f9054906101000a900460ff1681565b5f819050919050565b610305816102f3565b82525050565b5f60208201905061031e5f8301846102fc565b92915050565b5f73ffffffffffffffffffffffffffffffffffffffff82169050919050565b5f61034d82610324565b9050919050565b61035d81610343565b82525050565b5f6020820190506103765f830184610354565b92915050565b5f819050919050565b61038e8161037c565b82525050565b5f6020820190506103a75f830184610385565b92915050565b5f81519050919050565b5f82825260208201905092915050565b5f5b838110156103e45780820151818401526020810190506103c9565b5f8484015250505050565b5f601f19601f8301169050919050565b5f610409826103ad565b61041381856103b7565b93506104238185602086016103c7565b61042c816103ef565b840191505092915050565b5f6020820190508181035f83015261044f81846103ff565b905092915050565b5f819050919050565b61046981610457565b82525050565b5f6020820190506104825f830184610460565b92915050565b5f60408201905061049b5f8301856102fc565b81810360208301526104ad81846103ff565b90509392505050565b5f60ff82169050919050565b6104cb816104b6565b82525050565b5f6020820190506104e45f8301846104c2565b92915050565b7f4e487b71000000000000000000000000000000000000000000000000000000005f52602260045260245ffd5b5f600282049050600182168061052e57607f821691505b602082108103610541576105406104ea565b5b5091905056fea2646970667358221220657a9c7fe2bfae3f1754da5c280a6972cee166dccefe6a6bf6af2ed2e50c8b9e64736f6c63430008150033",
  "immutableReferences": {},
  "source": "// SPDX-License-Identifier: MIT\r\npragma solidity ^0.8.0;\r\n\r\ncontract Variables {\r\n    // State Variables\r\n    int256 public myInt = 1;\r\n    uint256 public myUint256 = 1;\r\n    uint8 public myUint8 = 1;\r\n\r\n    string public myString = \"Hello, World!\";\r\n    bytes32 public myBytes32 = \"Hello, World!\";\r\n\r\n    address public myAddress = 0xC02aaA39b223FE8D0A0e5C4F27eAD9083C756Cc2;\r\n\r\n    struct MyStruct {\r\n        uint256 myUint256;\r\n        string myString;\r\n    }\r\n\r\n    MyStruct public myStruct = MyStruct(1, \"Hello, World!\");\r\n\r\n    // Local Variables\r\n    function getValue() public pure returns (uint256) {\r\n        uint256 value = 1;\r\n        return value;\r\n    }\r\n}\r\n",
  "sourcePath": "F:\\GitHub\\Blockchain\\contracts\\2_Variables.sol",
  "compiler": {
    "name": "solc",
    "version": "0.8.21+commit.d9974bed.Emscripten.clang"
  },
  "schemaVersion": "3.4.16",
  "updatedAt": "2024-10-08T17:08:39.144Z",
  "devdoc": {
    "kind": "dev",
    "methods": {},
    "version": 1
  },
  "userdoc": {
    "kind": "user",
    "methods": {},
    "version": 1
  }
}